:100000000C946C000C9494000C9494000C94940048
:100010000C9494000C9494000C9494000C94940010
:100020000C9494000C9494000C9494000C94940000
:100030000C9494000C9494000C9494000C949400F0
:100040000C94E5030C9494000C949E060C94D0063A
:100050000C9494000C9494000C9494000C949400D0
:100060000C9494000C94940004FEFFFFFFFFFF0526
:10007000FEFFFFFFFFFF05FFFF03FFFFFF06FFFF80
:10008000FF0200FF00000008000201000003040757
:100090000000000000000000010204081020408061
:1000A00001020408102001020408102004040404C2
:1000B0000404040402020202020203030303030312
:1000C00000000000250028002B0000000000240094
:1000D00027002A002901000711241FBECFEFD8E016
:1000E000DEBFCDBF11E0A0E0B1E0ECE3F1E102C082
:1000F00005900D92AE36B107D9F722E0AEE6B1E039
:1001000001C01D92A138B207E1F710E0C8EDD0E0C0
:1001100004C02297FE010E949808C43DD107C9F788
:100120000E9444070C949C080C940000CF92DF922C
:10013000EF92FF920F931F93CF93DF937C018B017C
:10014000EA01690160E071E084EE91E00E949107AC
:10015000B70184EE91E00E94910763E171E084EEC3
:1001600091E00E9491074AE050E0B80184EE91E0EE
:100170000E9453086AE171E084EE91E00E949107C9
:100180004AE050E0BE0184EE91E00E9453086FE126
:1001900071E084EE91E00E9491074AE050E0B601E0
:1001A00084EE91E0DF91CF911F910F91FF90EF903E
:1001B000DF90CF900C945B0826E040E855E260E0C9
:1001C00070E084EE91E00E943C0668EE73E080E00F
:1001D00090E00E945E046CE271E084EE91E00E9487
:1001E0009E0742E351E066E970E08BEA91E00E94ED
:1001F000ED0147E351E066E970E08BE791E00E9492
:10020000ED0163E070E08BEA91E00E948C0168EC04
:1002100070E00E94C40162E00E94E70164E070E0C7
:100220008BE791E00E948C016CE271E00E94C401B6
:1002300062E00E94E7016BEA71E08EE691E00E94C5
:100240007C036BE771E00C947C038EE691E00C94E8
:1002500088033EE1EBEAF1E0DF01832F1D928A95EE
:10026000E9F72FEF2093B6012093B70180E491E0E6
:1002700091838083EBE7F1E0DF011D923A95E9F786
:1002800020938601209387019183808381E080936E
:100290006E010895CF93DF93EC016230710531F167
:1002A0005CF461157105C9F06130710581F54AA5ED
:1002B0005BA56CA57DA515C065307105E9F06630BC
:1002C000710509F16430710511F54CA15DA1BC0106
:1002D000625D7F4F0E940D0216C04EA15FA168A50E
:1002E00079A5CE010E94190290E013C0BC01625DA5
:1002F0007F4F0E943602F8CFBC01625D7F4F0E94A3
:100300003E0261E001C060E08AA10E94230580E016
:1003100090E0DF91CF9108950F931F93CF93DF93D8
:10032000EC01162F072F43E068E670E00E941102EF
:100330001AA30BA361E0812F0E94EA04BE016A5D4B
:100340007F4F24EF31E040E050E0CE010E940702F1
:10035000BE01665D7F4F24EF31E040E050E0CE010A
:100360000E9407028FEF9FEF9DA38CA3BE01625DE9
:100370007F4F4FEF5FEFCE010E940D02CE01DF9164
:10038000CF911F910F910895CF92DF92EF92FF923C
:10039000CF93DF93EC016B01EE24D7FCE094FE2CAD
:1003A000BC016A5D7F4FA70196010E940702BE0152
:1003B000665D7F4FA7019601CE010E940702CE0124
:1003C000DF91CF91FF90EF90DF90CF900895FC01E7
:1003D00062872FEF248713820895FC01558344839D
:1003E000758F648F08950F931F93CF93DF93EC0164
:1003F0000E942F040D891E892F89388D601B710B77
:10040000820B930BDF91CF911F910F910895FB0108
:1004100020833183428353830895FB0151834083BA
:100420000895FC01728F618F4C5F438F21E022831E
:100430000895CF92DF92EF92FF926A017B014F3FC6
:100440002FEF52076207720759F00E94F30121E073
:10045000C616D706E806F90608F020E0822F01C08C
:1004600080E0FF90EF90DF90CF90089581E0FB0156
:1004700020813181232B09F080E00895FB01208148
:100480003181215031092E3FFFEF3F0728F4FB0156
:1004900031832083C901089580E090E00895FF92A0
:1004A0000F931F93CF93DF93EC018B818111C0C019
:1004B0008A858F3F09F44EC0E881F9810190F0816F
:1004C000E02D6DEF7FEFCE010995EC8DFD8D30971E
:1004D00099F02C85332727FD30954A85552747FD10
:1004E00050956B85772767FD70958C819D8100976E
:1004F00011F482E491E009958A858B878FEF8A87D2
:100500000E942F046D8B7E8B8F8B988F2B853B8D5C
:100510002303C0011124E98DFA8DE80FF91FE4913E
:10052000A881B9816E2F772767FD7095ED91FC91B9
:10053000CE0109952B853B8D2303C0011124019623
:10054000E98DFA8DE80FF91FE49181E0EE3F09F0A3
:1005500080E08B832B853B8D2303C0011124019602
:10056000E98DFA8DE80FF91FE491EF3F51F0A88172
:10057000B9816E2F772767FD7095ED91FC91CE01C3
:10058000099583E0F82E0F2D112707FD10954B8D4F
:10059000242F30E0021713070CF04AC02B852403E8
:1005A000C0011124800F911FE98DFA8DE80FF91F0A
:1005B000E491EF3F09F43AC0E881F9810190F081BC
:1005C000E02DB80163507109CE0109954B8D892B3F
:1005D00039F4242F30E0215031090217130731F587
:1005E0002B852403C00111240296E98DFA8DE80FB2
:1005F000F91FE491A881B9816E2F772767FD709567
:10060000ED91FC91CE0109952B853B8D2303C00113
:100610001124800F911FE98DFA8DE80FF91FE491E5
:10062000EA871B828DEF8F0D8C8702C0F394ABCFCE
:10063000CE01DF91CF911F910F91FF900895CF933D
:10064000DF93FC01148213821682158210861782B2
:100650001286118614861386A181B2811097B1F09B
:100660001296CC911297C53064F4CC0FDD0BCE0FEF
:10067000DF1F8B819C8119969C938E931897BC8366
:10068000AB8316960D90BC91A02DE8CF1082DF9120
:10069000CF910895DF92EF92FF920F931F93CF9324
:1006A000DF937C018B01FB01EE0FFF1FEE0DFF1DA1
:1006B000C381D481DD24D3942097B1F010161106A4
:1006C00034F48B81811103C0CE010E944F028A81D4
:1006D000992787FD90958017910711F0F701D08237
:1006E0000884D985C02DE8CFDF91CF911F910F915C
:1006F000FF90EF90DF900895FC0121813281FB0192
:1007000037832683FC017283618321E0208308956F
:10071000CF93DF93EC018881882319F0CE010E94EA
:100720001F0361E070E0CE010E944A0362E070E0C6
:10073000CE010E944A0361E070E0CE010E944A03AC
:1007400062E070E0CE010E944A0361E070E0CE01F9
:100750000E944A0363E070E0CE010E944A0361E018
:1007600070E0CE010E944A0364E070E0CE010E9476
:100770004A0361E070E0CE010E944A0362E070E04B
:10078000CE010E944A0361E070E0CE010E944A035C
:1007900063E070E0CE010E944A0361E070E0CE01A8
:1007A0000E944A0362E070E0CE010E944A0361E0C9
:1007B00070E0CE010E944A0360E070E0CE010E942A
:1007C0004A03CE01DF91CF9108951F920F920FB689
:1007D0000F9211242F933F938F939F93AF93BF93C7
:1007E0008091DC019091DD01A091DE01B091DF01EB
:1007F0003091DB0123E0230F2D3720F40196A11D5A
:10080000B11D05C026E8230F0296A11DB11D20933E
:10081000DB018093DC019093DD01A093DE01B093B6
:10082000DF018091E0019091E101A091E201B0919E
:10083000E3010196A11DB11D8093E0019093E101B8
:10084000A093E201B093E301BF91AF919F918F918B
:100850003F912F910F900FBE0F901F9018952FB7BB
:10086000F8946091DC017091DD018091DE0190913E
:10087000DF012FBF08953FB7F8948091E001909178
:10088000E101A091E201B091E30126B5A89B05C06A
:100890002F3F19F00196A11DB11D3FBF6627782F8C
:1008A000892F9A2F620F711D811D911D42E0660FE5
:1008B000771F881F991F4A95D1F70895CF92DF922D
:1008C000EF92FF92CF93DF936B017C010E943B0478
:1008D000EB01C114D104E104F10489F00E94730812
:1008E0000E943B046C1B7D0B683E734090F381E0DB
:1008F000C81AD108E108F108C851DC4FEACFDF91EE
:10090000CF91FF90EF90DF90CF900895789484B5C9
:10091000826084BD84B5816084BD85B5826085BDFB
:1009200085B5816085BDEEE6F0E0808181608083E1
:10093000E1E8F0E0108280818260808380818160C4
:100940008083E0E8F0E0808181608083E1EBF0E08B
:10095000808184608083E0EBF0E08081816080832F
:10096000EAE7F0E080818460808380818260808318
:100970008081816080838081806880831092C10043
:100980000895833081F028F4813099F08230A1F00D
:1009900008958730A9F08830B9F08430D1F480917F
:1009A00080008F7D03C0809180008F7780938000CE
:1009B000089584B58F7702C084B58F7D84BD089576
:1009C0008091B0008F7703C08091B0008F7D8093BD
:1009D000B0000895CF93DF9390E0FC01E856FF4FFD
:1009E0002491FC01E455FF4F8491882349F190E064
:1009F000880F991FFC01E653FF4FA591B4918054D5
:100A00009F4FFC01C591D4919FB7611108C0F89424
:100A10008C91209582238C93888182230AC0623036
:100A200051F4F8948C91322F309583238C938881E4
:100A3000822B888304C0F8948C91822B8C939FBF67
:100A4000DF91CF9108950F931F93CF93DF931F9260
:100A5000CDB7DEB7282F30E0F901EC57FF4F849176
:100A6000F901E856FF4F1491F901E455FF4F049145
:100A70000023C9F0882321F069830E94C1046981A1
:100A8000E02FF0E0EE0FFF1FE054FF4FA591B4916F
:100A90009FB7F8948C91611103C01095812301C018
:100AA000812B8C939FBF0F90DF91CF911F910F915E
:100AB0000895FC01818D228D90E0805C9F4F821B08
:100AC00091098F7399270895FC01918D828D981754
:100AD00031F0828DE80FF11D858D90E008958FEF44
:100AE0009FEF0895FC01918D828D981761F0828DA2
:100AF000DF01A80FB11D5D968C91928D9F5F9F7352
:100B0000928F90E008958FEF9FEF089586EF96E023
:100B1000892B49F080E090E0892B29F00E94F606AD
:100B200081110C9400000895FC01848DDF01A80F51
:100B3000B11DA35ABF4F2C91848D90E001968F7305
:100B40009927848FA689B7892C93A089B1898C9124
:100B500080648C93938D848D981306C00288F389EA
:100B6000E02D80818F7D80830895CF93DF93EC010A
:100B7000888D8823C9F0EA89FB89808185FD05C0BD
:100B8000A889B9898C9186FD0FC00FB607FCF5CFF7
:100B9000808185FFF2CFA889B9898C9185FFEDCF3F
:100BA000CE010E949405E7CFDF91CF910895CF92B7
:100BB000DF92FF920F931F93CF93DF931F92CDB7D6
:100BC000DEB76C0181E0D60158968C9358975B96FE
:100BD0009C915B975C968C915C97981307C050969C
:100BE000ED91FC915197808185FD2EC0F601038D1A
:100BF00010E00F5F1F4F0F731127F02EF601848D49
:100C0000F81211C00FB607FCF9CFD6015096ED913E
:100C1000FC915197808185FFF1CFC60169830E94C5
:100C200094056981EBCF838DE80FF11DE35AFF4FE7
:100C30006083D6015B960C935B975296ED91FC9185
:100C40005397808180620CC0D6015696ED91FC913D
:100C5000579760835096ED91FC9151978081806405
:100C6000808381E090E00F90DF91CF911F910F91F1
:100C7000FF90DF90CF900895BF92CF92DF92EF92D6
:100C8000FF92CF93DF93EC016A017B01B22EE889DA
:100C9000F98982E08083411581EE5807610571056D
:100CA000A1F060E079E08DE390E0A70196010E9459
:100CB00074082150310941095109569547953795D6
:100CC0002795211580E1380798F0E889F989108285
:100CD00060E874E88EE190E0A70196010E94740834
:100CE0002150310941095109569547953795279566
:100CF000EC85FD853083EE85FF852083188EEC8999
:100D0000FD89B082EA89FB89808180618083EA89DC
:100D1000FB89808188608083EA89FB898081806883
:100D20008083EA89FB8980818F7D8083DF91CF91E9
:100D3000FF90EF90DF90CF90BF9008951F920F9299
:100D40000FB60F9211242F938F939F93EF93FF93DE
:100D5000E091F401F091F5018081E091FA01F091C8
:100D6000FB0182FD12C090818091FD018F5F8F7326
:100D70002091FE01821751F0E091FD01F0E0EC516D
:100D8000FE4F958F8093FD0101C08081FF91EF910F
:100D90009F918F912F910F900FBE0F901F901895DC
:100DA0001F920F920FB60F9211242F933F934F93E0
:100DB0005F936F937F938F939F93AF93BF93EF93C3
:100DC000FF9384EE91E00E949405FF91EF91BF9113
:100DD000AF919F918F917F916F915F914F913F91D3
:100DE0002F910F900FBE0F901F90189584EE91E0F9
:100DF0000E94590521E0892B09F420E0822F0895F3
:100E00001092E7011092E60188EE93E0A0E0B0E0D6
:100E10008093E8019093E901A093EA01B093EB017C
:100E200080E591E09093E5018093E40185EC90E00A
:100E30009093F1018093F00184EC90E09093F301A2
:100E40008093F20180EC90E09093F5018093F4019F
:100E500081EC90E09093F7018093F60182EC90E0B2
:100E60009093F9018093F80186EC90E09093FB0158
:100E70008093FA011092FD011092FE011092FF0181
:100E800010920002089508950E9486040E9443076C
:100E90000E94DC00C6E8D5E00E9425012097E1F31E
:100EA0000E948605F9CFCF92DF92EF92FF920F93C7
:100EB0001F93CF93DF936C017A01EB01E60EF71ECF
:100EC00000E010E0CE15DF0561F06991D601ED91EB
:100ED000FC910190F081E02DC6010995080F191FC2
:100EE000F1CFC801DF91CF911F910F91FF90EF904B
:100EF000DF90CF9008956115710581F0DB010D90B1
:100F00000020E9F7AD0141505109461B570BDC01A8
:100F1000ED91FC910280F381E02D099480E090E056
:100F200008950C947B07DC01ED91FC910190F08118
:100F3000E02D09946CE571E00C947B070F931F93EF
:100F4000CF93DF93EC010E947B078C01CE010E94BE
:100F50009A07800F911FDF91CF911F910F910895F4
:100F60008F929F92AF92BF92CF92DF92EF92FF92B9
:100F70000F931F93CF93DF93CDB7DEB7A1970FB633
:100F8000F894DEBF0FBECDBF7C01C42EE52FCB0190
:100F9000D22E19A221E02D1510F02AE0D22E8E01BA
:100FA0000F5D1F4F8D2C912CA12CB12C6C2D7E2F01
:100FB000A50194010E9474088C2DD29E80191124E1
:100FC000015011098A3014F4805D01C0895CF80178
:100FD0008083211531054105510521F0C22EE32FF3
:100FE000CA01E4CFB801C7010E947B07A1960FB6E2
:100FF000F894DEBF0FBECDBFDF91CF911F910F914F
:10100000FF90EF90DF90CF90BF90AF909F908F9028
:101010000895CF92DF92EF92FF920F931F93CF9399
:10102000DF93EC016A017B012115310579F4E88138
:10103000F9810190F081E02D642FDF91CF911F9114
:101040000F91FF90EF90DF90CF9009942A303105F7
:10105000E9F477FF1AC06DE20E9493078C014427E0
:101060005527BA014C195D096E097F092AE0CE01A6
:101070000E94B007800F911FDF91CF911F910F91B8
:10108000FF90EF90DF90CF9008952AE0B701A6017E
:10109000CE01DF91CF911F910F91FF90EF90DF90E4
:1010A000CF900C94B0079A01AB01662757FD60956D
:1010B000762F0C9409080F931F93CF93DF93EC01C5
:1010C0009A01AB01662757FD6095762F0E940908AB
:1010D0008C01CE010E949A07800F911FDF91CF9162
:1010E0001F910F9108950895A1E21A2EAA1BBB1B10
:1010F000FD010DC0AA1FBB1FEE1FFF1FA217B307E4
:10110000E407F50720F0A21BB30BE40BF50B661FF9
:10111000771F881F991F1A9469F7609570958095BD
:1011200090959B01AC01BD01CF010895EE0FFF1F0B
:0C1130000590F491E02D0994F894FFCF95
:10113C00537769746368696E67206D616368696E63
:10114C006520002066726F6D200020746F200020D7
:10115C006F6E2074726967676572200073746172B8
:10116C0074004C454431004C4544320000000000F2
:10117C004A01554E4C4142454C454400000000008C
:10118C00D7055307590572056405B5050D0A006EA0
:0E119C00616E00696E66006F7666002E0000C0
:00000001FF
